:060000000A128A1100291A
:1002000003178316880189010313831605148514C7
:1002100085118601870188010313831285018601F8
:1002200087018801640003138316D0300105043868
:100230008100031383160F168F160F170F14352125
:1002400005184321051C452185184C21851C4E218C
:100250000B1D28293521FA30210203193B214021A9
:10026000060807020319562120290313831283303D
:1002700081080B110800860A061A8601031108007E
:10028000A10A0B11080020140800201C0800870A8E
:10029000071A8701A0010800A0140800A01C08008C
:1002A00087030F30071A8700A00108000830850671
:0602B000860103110800A5
:04400E00C430FF3F7C
:00000001FF
